:100000000C942A001895000018950000189500001F
:10001000189500001895000018950000189500002C
:10002000189500001895000018950000189500001C
:10003000189500001895000018950000189500000C
:1000400018950000189500001895000018950000FC
:10005000189500008FE58DBFC8E3E0E24E2E84E0E6
:100060008EBFD4E0F4E05F2EA89584B7082E877F7A
:1000700084BF88E1992781BD91BDEEEFF3E0A0E652
:10008000B0E088278D933197E9F70E9461006624DC
:100090008FEF84BB889A899AE2E4F1E00E945800CD
:1000A0000E945F00E0E5F1E00E945800F894FFCF65
:1000B0000E949D00802D11F014D0FACF089580EC9D
:1000C0001EC08AEF90E00E948E008FEF84BB899A59
:1000D000889A88E314D013D08EE011D086E00FD038
:1000E0000895909A85BB919AEF93FF93E0E6F0E034
:1000F0000E948200FF91EF9191980DD00895909801
:10010000F1CF08953197F1F70895689462F8089552
:10011000E89462F8089581E090E000C0EF93FF93C7
:10012000EE27E82BE92B31F0E8EEF3E03197F1F719
:100130000197D1F7FF91EF910895C895319600206E
:1001400008955A65696E61622041686D6164690055
:100150004D6D6452657A61205365646171617469A3
:0201600000009D
:00000001FF
